{
  "contractName": "Item",
  "abi": [
    {
      "inputs": [
        {
          "internalType": "contract ItemManager",
          "name": "_parentContract",
          "type": "address"
        },
        {
          "internalType": "uint256",
          "name": "_priceInWei",
          "type": "uint256"
        },
        {
          "internalType": "uint256",
          "name": "_index",
          "type": "uint256"
        }
      ],
      "stateMutability": "nonpayable",
      "type": "constructor"
    },
    {
      "stateMutability": "payable",
      "type": "fallback"
    },
    {
      "inputs": [],
      "name": "index",
      "outputs": [
        {
          "internalType": "uint256",
          "name": "",
          "type": "uint256"
        }
      ],
      "stateMutability": "view",
      "type": "function"
    },
    {
      "inputs": [],
      "name": "priceInWei",
      "outputs": [
        {
          "internalType": "uint256",
          "name": "",
          "type": "uint256"
        }
      ],
      "stateMutability": "view",
      "type": "function"
    },
    {
      "inputs": [],
      "name": "pricePaid",
      "outputs": [
        {
          "internalType": "uint256",
          "name": "",
          "type": "uint256"
        }
      ],
      "stateMutability": "view",
      "type": "function"
    },
    {
      "stateMutability": "payable",
      "type": "receive"
    }
  ],
  "bytecode": "0x608060405234801561001057600080fd5b506040516104bb3803806104bb8339818101604052606081101561003357600080fd5b81019080805190602001909291908051906020019092919080519060200190929190505050816000819055508060018190555082600360006101000a81548173ffffffffffffffffffffffffffffffffffffffff021916908373ffffffffffffffffffffffffffffffffffffffff160217905550505050610402806100b96000396000f3fe6080604052600436106100385760003560e01c80632986c0e5146102c75780633c8da588146102f257806389794d001461031d576102c5565b366102c5576000543414610097576040517f08c379a000000000000000000000000000000000000000000000000000000000815260040180806020018281038252602481526020018061035b6024913960400191505060405180910390fd5b6000600254146100f2576040517f08c379a00000000000000000000000000000000000000000000000000000000081526004018080602001828103825260248152602001806103a96024913960400191505060405180910390fd5b346002600082825401925050819055506000600360009054906101000a900473ffffffffffffffffffffffffffffffffffffffff1673ffffffffffffffffffffffffffffffffffffffff1634600154604051602401808281526020019150506040516020818303038152906040527f800fb83f000000000000000000000000000000000000000000000000000000007bffffffffffffffffffffffffffffffffffffffffffffffffffffffff19166020820180517bffffffffffffffffffffffffffffffffffffffffffffffffffffffff83818316178352505050506040518082805190602001908083835b6020831061020157805182526020820191506020810190506020830392506101de565b6001836020036101000a03801982511681845116808217855250505050505090500191505060006040518083038185875af1925050503d8060008114610263576040519150601f19603f3d011682016040523d82523d6000602084013e610268565b606091505b50509050806102c2576040517f08c379a000000000000000000000000000000000000000000000000000000000815260040180806020018281038252602a81526020018061037f602a913960400191505060405180910390fd5b50005b005b3480156102d357600080fd5b506102dc610348565b6040518082815260200191505060405180910390f35b3480156102fe57600080fd5b5061030761034e565b6040518082815260200191505060405180910390f35b34801561032957600080fd5b50610332610354565b6040518082815260200191505060405180910390f35b60015481565b60005481565b6002548156fe536f72727921204f6e6c792066756c6c207061796d656e747320616c6c6f7765642e2e2e5472616e73616374696f6e2077617320696e7375636365737366756c2e2043616e63656c696e672e2e2e596f7527766520616c7265616479207061696420666f722074686973206974656d2e2e2ea2646970667358221220c28b8b0c5397fdecf81e4d0368ea87ef125d96dea7c31b8de874adadb99c86fc64736f6c63430006040033",
  "source": "pragma solidity ^0.6.4;\r\n\r\nimport \"./ItemManager.sol\";\r\n//Creates instance of an item so each product has a unique address\r\ncontract Item {\r\n    uint public priceInWei;\r\n    uint public index;\r\n    uint public pricePaid;\r\n\r\n    ItemManager parentContract;\r\n    constructor(ItemManager _parentContract, uint _priceInWei, uint _index) public {\r\n        priceInWei = _priceInWei;\r\n        index = _index; \r\n        parentContract = _parentContract;\r\n    }\r\n\r\n    //Fallback function to receive payments externally\r\n    receive() external payable {\r\n        require(msg.value == priceInWei, \"Sorry! Only full payments allowed...\");\r\n        require(pricePaid == 0, \"You've already paid for this item...\");\r\n        pricePaid += msg.value;\r\n        //use a low level function to reduce gas fees and return a boolean to indicate its success, rather than .transfer()\r\n        //Using \"triggerFunction()\" function signature. returns two values - bool for success and value. 2300 gas is used according to documentation.\r\n        (bool success, ) = address(parentContract).call{value:msg.value}(abi.encodeWithSignature(\"triggerPayment(uint256)\", index));\r\n        require(success, \"Transaction was insuccessful. Canceling...\");\r\n    }\r\n    \r\n    fallback() external payable {}\r\n}",
  "sourcePath": "C:\\Users\\User\\Documents\\GitHub\\Projects\\Blockchain_Development\\Projects\\contracts\\Item.sol",
  "compiler": {
    "name": "solc",
    "version": "0.6.4+commit.1dca32f3.Emscripten.clang"
  },
  "schemaVersion": "3.4.4",
  "updatedAt": "2022-04-22T17:09:46.430Z",
  "devdoc": {
    "methods": {}
  },
  "userdoc": {
    "methods": {}
  }
}