{
  "contractName": "Ownable",
  "abi": [
    {
      "inputs": [],
      "stateMutability": "nonpayable",
      "type": "constructor"
    },
    {
      "inputs": [],
      "name": "isOwner",
      "outputs": [
        {
          "internalType": "bool",
          "name": "",
          "type": "bool"
        }
      ],
      "stateMutability": "view",
      "type": "function"
    }
  ],
  "bytecode": "0x6080604052348015600f57600080fd5b50336000806101000a81548173ffffffffffffffffffffffffffffffffffffffff021916908373ffffffffffffffffffffffffffffffffffffffff16021790555060da8061005e6000396000f3fe6080604052348015600f57600080fd5b506004361060285760003560e01c80638f32d59b14602d575b600080fd5b6033604d565b604051808215151515815260200191505060405180910390f35b60008060009054906101000a900473ffffffffffffffffffffffffffffffffffffffff1673ffffffffffffffffffffffffffffffffffffffff163373ffffffffffffffffffffffffffffffffffffffff161490509056fea26469706673582212205488abc691a7b418bf9ad1b8adebcfe8c9d4af0545aeba051a0fb4e8f4fdeb4a64736f6c63430006040033",
  "source": "pragma solidity ^0.6.4;\r\n\r\ncontract Ownable {\r\n    address payable _owner;\r\n\r\n    //assigns owner to person deploying contract\r\n    constructor() public {\r\n        _owner = msg.sender;\r\n    }\r\n\r\n    modifier onlyOwner() {\r\n        require(isOwner(), \"You're not the Owner!!\");\r\n        _;\r\n    }\r\n\r\n    //verifies if address is the owner\r\n    function isOwner() public view returns(bool) {\r\n        return (msg.sender == _owner);\r\n    }\r\n}\r\n",
  "sourcePath": "C:\\Users\\User\\Documents\\GitHub\\Projects\\Blockchain_Development\\Projects\\contracts\\Ownable.sol",
  "compiler": {
    "name": "solc",
    "version": "0.6.4+commit.1dca32f3.Emscripten.clang"
  },
  "schemaVersion": "3.4.4",
  "updatedAt": "2022-01-04T12:10:46.876Z",
  "devdoc": {
    "methods": {}
  },
  "userdoc": {
    "methods": {}
  }
}